:100000000C9446000C9465000C9465000C946500FB
:100010000C9465000C9465000C9465000C946500CC
:100020000C9465000C9465000C9465000C946500BC
:100030000C9465000C9465000C9465000C946500AC
:100040000C9465000C9465000C9465000C9465009C
:100050000C9465000C9465000C9465000C9465008C
:100060000C9465000C9465000C9465000C9465007C
:100070000C9465000C9465000C9465000C9465006C
:100080000C9465000C9465000C94650011241FBE4F
:10009000CFEFD0E4DEBFCDBF11E0A0E0B1E0EEE2F3
:1000A000F3E000E00BBF02C007900D92AE30B10745
:1000B000D9F711E0AEE0B1E001C01D92A631B10761
:1000C000E1F70E946F010C9495010C940000CF930E
:1000D000DF9300D01F92CDB7DEB789837B836A831D
:1000E00089818A3031F48A819B81BC018DE00E9434
:1000F000670080EC90E0FC018081882F90E08072A6
:1001000099270097B1F386EC90E02981FC012083C8
:1001100080E090E00F900F900F90DF91CF910895C5
:10012000CF93DF93CDB7DEB780911001909111018D
:1001300082309105A1F18330910530F4009781F070
:1001400081309105A1F07EC08430910509F46CC026
:1001500084309105B0F18530910509F46CC072C00E
:1001600081E090E0909311018093100172C080E2D1
:1001700090E0FC018081882359F080910E01882352
:1001800039F482E090E0909311018093100161C0F6
:1001900081E090E090931101809310015AC080910A
:1001A0000F01843038F083E090E090931101809348
:1001B00010014FC081E090E09093110180931001F5
:1001C00048C080911201843039F58091130181304B
:1001D00019F5809114018230F9F480911501813074
:1001E000D9F483E290E0FC018081882339F484E033
:1001F00090E090931101809310010DC083E290E094
:10020000FC018081813039F485E090E09093110108
:100210008093100108C007C081E090E09093110125
:100220008093100116C015C081E090E090931101F9
:10023000809310010EC081E090E0909311018093B3
:10024000100107C081E090E09093110180931001AC
:10025000000080911001909111018230910599F078
:100260008330910530F4009771F18130910569F187
:100270002DC084309105E1F084309105B0F08530D7
:100280009105E1F023C080910F01882F90E020E2DA
:1002900030E0F90120818E5E9E4FFC012083809129
:1002A0000F018F5F80930F0111C010920F010EC0DC
:1002B00085E290E021E0FC01208308C085E290E027
:1002C000FC01108203C0000001C0000080E290E049
:1002D000FC01808180930E01DF91CF910895CF932F
:1002E000DF93CDB7DEB781E290E0FC01108282E2BD
:1002F00090E02FEFFC01208384E290E02FEFFC01DF
:10030000208385E290E0FC01108287E290E02FEFED
:10031000FC01208388E290E0FC0110821092110120
:0E032000109210010E949000FDCFF894FFCFC4
:0E032E00000000020000000067000000000058
:00000001FF
