:100000000C9446000C9465000C9465000C946500FB
:100010000C9465000C9465000C9465000C946500CC
:100020000C9465000C9465000C9465000C946500BC
:100030000C9465000C9465000C9465000C946500AC
:100040000C9465000C9465000C9465000C9465009C
:100050000C9465000C9465000C9465000C9465008C
:100060000C9465000C9465000C9465000C9465007C
:100070000C9465000C9465000C9465000C9465006C
:100080000C9465000C9465000C94650011241FBE4F
:10009000CFEFD0E4DEBFCDBF11E0A0E0B1E0E6EFEE
:1000A000F2E000E00BBF02C007900D92AE30B10746
:1000B000D9F711E0AEE0B1E001C01D92A631B10761
:1000C000E1F70E9453010C9479010C940000CF9346
:1000D000DF9300D01F92CDB7DEB789837B836A831D
:1000E00089818A3031F48A819B81BC018DE00E9434
:1000F000670080EC90E0FC018081882F90E08072A6
:1001000099270097B1F386EC90E02981FC012083C8
:1001100080E090E00F900F900F90DF91CF910895C5
:10012000CF93DF93CDB7DEB780911001909111018D
:1001300082309105C1F18330910530F4009769F068
:100140008130910501F16AC08330910509F45CC0EA
:100150008430910509F45DC061C080E290E0FC014B
:100160008081882359F080910E01882339F481E041
:1001700090E0909311018093100155C010921101ED
:100180001092100150C080910F01843038F082E04D
:1001900090E0909311018093100145C010921101DD
:1001A0001092100140C080911201843039F5809185
:1001B0001301813019F5809114018230F9F4809196
:1001C00015018130D9F483E290E0FC01808188231D
:1001D00039F483E090E090931101809310010DC0F9
:1001E00083E290E0FC018081813039F484E090E08A
:1001F000909311018093100106C005C01092110167
:100200001092100110C00FC0109211011092100135
:100210000AC0109211011092100105C01092110134
:100220001092100100008091100190911101823014
:10023000910509F18330910530F4009751F1813037
:10024000910541F027C083309105C1F084309105BC
:10025000D9F020C080910F0191E0980F90930F0189
:10026000882F90E020E230E0F90120818E5E9E4FE1
:10027000FC0120830FC010920F010CC085E290E0BA
:1002800021E0FC01208306C085E290E0FC011082A1
:1002900001C0000080E290E0FC01808180930E01AB
:1002A000DF91CF910895CF93DF93CDB7DEB781E291
:1002B00090E0FC01108282E290E02FEFFC012083AD
:1002C00084E290E02FEFFC01208385E290E0FC01C6
:1002D000108287E290E02FEFFC01208388E290E01B
:1002E000FC01108210921101109210010E949000E6
:0602F000FDCFF894FFCFE2
:0E02F600000000020000000067000000000091
:00000001FF
