:100000000C9446000C9465000C9465000C946500FB
:100010000C9465000C9465000C9465000C946500CC
:100020000C9465000C9465000C9465000C946500BC
:100030000C9465000C9465000C9465000C946500AC
:100040000C9465000C9465000C9465000C9465009C
:100050000C9465000C9465000C9465000C9465008C
:100060000C9465000C9465000C9465000C9465007C
:100070000C9465000C9465000C9465000C9465006C
:100080000C9465000C9465000C94650011241FBE4F
:10009000CFEFD0E4DEBFCDBF11E0A0E0B1E0E4E1FE
:1000A000F3E000E00BBF02C007900D92AE30B10745
:1000B000D9F711E0AEE0B1E001C01D92A131B10766
:1000C000E1F70E946B010C9488010C940000CF931F
:1000D000DF9300D01F92CDB7DEB789837B836A831D
:1000E00089818A3031F48A819B81BC018DE00E9434
:1000F000670080EC90E0FC018081882F90E08072A6
:1001000099270097B1F386EC90E02981FC012083C8
:1001100080E090E00F900F900F90DF91CF910895C5
:10012000CF93DF93CDB7DEB780910F01909110018F
:100130008230910509F466C08330910530F4009750
:1001400069F08130910589F072C08330910509F41E
:1001500060C08430910509F463C069C081E090E01B
:100160009093100180930F0169C080E290E0FC0140
:100170008081882F90E081709927009789F080E234
:1001800090E0FC018081882F90E082709927009791
:1001900039F084E090E09093100180930F0131C01A
:1001A00080E290E0FC018081882F90E081709927A7
:1001B000009759F080910E01813039F082E090E093
:1001C0009093100180930F011CC080E290E0FC012D
:1001D0008081882F90E082709927009759F0809154
:1001E0000E01823039F083E090E09093100180930B
:1001F0000F0107C081E090E09093100180930F0100
:100200001DC01CC081E090E09093100180930F010D
:1002100015C081E090E09093100180930F010EC013
:1002200081E090E09093100180930F0107C081E07E
:1002300090E09093100180930F01000080910F01D6
:100240009091100182309105A9F08330910530F42E
:10025000009759F081309105A1F134C083309105A8
:10026000D1F08430910541F12DC088E290E0FC018D
:10027000108228C086E290E0FC018081893050F431
:1002800088E290E028E230E0F90120812F5FFC0154
:10029000208318C017C086E290E0FC01808188238B
:1002A00051F088E290E028E230E0F901208121500D
:1002B000FC01208307C006C088E290E0FC011082A8
:1002C00001C0000080E290E0FC01808180930E017B
:1002D000DF91CF910895CF93DF93CDB7DEB781E261
:1002E00090E0FC01108282E290E02FEFFC0120837D
:1002F00087E290E02FEFFC01208388E290E0FC0190
:1003000010821092100110920F010E949000FDCFF8
:04031000F894FFCF8F
:0E031400000000020000000067000000000072
:00000001FF
