:100000000C9446000C9465000C9465000C946500FB
:100010000C9465000C9465000C9465000C946500CC
:100020000C9465000C9465000C9465000C946500BC
:100030000C9465000C9465000C9465000C946500AC
:100040000C9465000C9465000C9465000C9465009C
:100050000C9465000C9465000C9465000C9465008C
:100060000C9465000C9465000C9465000C9465007C
:100070000C9465000C9465000C9465000C9465006C
:100080000C9465000C9465000C94650011241FBE4F
:10009000CFEFD0E4DEBFCDBF11E0A0E0B1E0E8E6F5
:1000A000F2E000E00BBF02C007900D92AE30B10746
:1000B000D9F711E0AEE0B1E001C01D92A131B10766
:1000C000E1F70E9415010C9432010C940000CF93CB
:1000D000DF9300D01F92CDB7DEB789837B836A831D
:1000E00089818A3031F48A819B81BC018DE00E9434
:1000F000670080EC90E0FC018081882F90E08072A6
:1001000099270097B1F386EC90E02981FC012083C8
:1001100080E090E00F900F900F90DF91CF910895C5
:10012000CF93DF93CDB7DEB780910F01909110018F
:100130008130910571F08130910520F08230910578
:1001400041F147C081E090E09093100180930F014E
:1001500047C080E290E0FC018081882F90E08170B0
:100160009927817020910E0191E0222309F090E0FF
:100170008923882339F082E090E0909310018093E6
:100180000F012EC081E090E09093100180930F0149
:1001900027C080E290E0FC018081882F90E0817090
:1001A0009927817020910E0191E0222309F090E0BF
:1001B0008923882339F081E090E0909310018093A7
:1001C0000F010EC082E090E09093100180930F0128
:1001D00007C081E090E09093100180930F01000030
:1001E00080910F01909110018130910539F081309B
:1001F000910580F08230910539F00DC085E290E0E4
:1002000021E0FC01208307C085E290E022E0FC01B0
:10021000208301C0000080E290E0FC0180818170B9
:1002200080930E01DF91CF910895CF93DF93CDB7E7
:10023000DEB781E290E0FC01108282E290E02FEFD5
:10024000FC01208384E290E02FEFFC01208385E213
:1002500090E0FC0110821092100110920F010E9498
:080260009000FDCFF894FFCFE0
:0E02680000000002000000006700000000001F
:00000001FF
