:100000000C9456000C9475000C9475000C947500BB
:100010000C9475000C9475000C9475000C9475008C
:100020000C9475000C9475000C9475000C9475007C
:100030000C9475000C9475000C9475000C9475006C
:100040000C9475000C9475000C9475000C9475005C
:100050000C9475000C9475000C9475000C9475004C
:100060000C9475000C9475000C9475000C9475003C
:100070000C9475000C9475000C9475000C9475002C
:100080000C9475000C9475000C947500BA00C100B6
:10009000DD00E400000107011D0131016F016F0166
:1000A00054016F015B016F016201680111241FBEE1
:1000B000CFEFD0E4DEBFCDBF11E0A0E0B1E0E4E5DA
:1000C000F3E000E00BBF02C007900D92AE30B10725
:1000D000D9F711E0AEE0B1E001C01D92A331B10744
:1000E000E1F70E9479010C94A8010C940000CF93D1
:1000F000DF9300D01F92CDB7DEB789837B836A83FD
:1001000089818A3031F48A819B81BC018DE00E9413
:10011000770080EC90E0FC018081882F90E0807275
:1001200099270097B1F386EC90E02981FC012083A8
:1001300080E090E00F900F900F90DF91CF910895A5
:10014000CF93DF93CDB7DEB780910F01909110016F
:10015000CC01A0E0B0E040E050E027E030E0841BBC
:10016000950B2817390708F483C08A5B9F4FFC0161
:100170000C949F0181E090E09093100180930F0117
:100180007EC080E290E0FC018081882379F080E2EB
:1001900090E0FC01908180910E01981739F082E087
:1001A00090E09093100180930F0169C081E090E08E
:1001B0009093100180930F0162C083E090E09093D0
:1001C000100180930F015BC080E290E0FC01808110
:1001D000882379F080E290E0FC01908180910E010B
:1001E000981739F084E090E09093100180930F010C
:1001F00046C083E090E09093100180930F013FC0D0
:1002000085E090E09093100180930F0138C08091B9
:100210001101843059F480911201823039F486E062
:1002200090E09093100180930F0129C081E090E04D
:100230009093100180930F0122C080E290E0FC01B6
:10024000808188233CF487E090E0909310018093B4
:100250000F0115C086E090E09093100180930F018C
:100260000EC081E090E09093100180930F0107C0D1
:1002700081E090E09093100180930F010000809145
:100280000F0190911001CC01A0E0B0E040E050E0FF
:1002900027E030E0841B950B28173907F0F0825BCC
:1002A0009F4FFC010C949F0180E290E0FC01808153
:1002B0008093110115C080E290E0FC018081809361
:1002C00012010EC085E290E021E0FC01208308C00D
:1002D00085E290E0FC01108203C0000001C0000034
:1002E00080E290E0FC01808180930E01DF91CF914C
:1002F0000895CF93DF93CDB7DEB781E290E0FC01A4
:10030000108282E290E02FEFFC01208384E290E0F3
:100310002FEFFC01208385E290E0FC01108287E250
:1003200090E02FEFFC01208388E290E0FC01108236
:100330001092100110920F010E94A000FDCFEE0F4D
:10034000FF1F0024001C0BBE0790F691E02D0994BE
:04035000F894FFCF4F
:0E035400000000020000000077000000000022
:00000001FF
