:100000000C9446000C9465000C9465000C946500FB
:100010000C9465000C9465000C9465000C946500CC
:100020000C9465000C9465000C9465000C946500BC
:100030000C9465000C9465000C9465000C946500AC
:100040000C9465000C9465000C9465000C9465009C
:100050000C9465000C9465000C9465000C9465008C
:100060000C9465000C9465000C9465000C9465007C
:100070000C9465000C9465000C9465000C9465006C
:100080000C9465000C9465000C94650011241FBE4F
:10009000CFEFD0E4DEBFCDBF11E0A0E0B1E0EAEAEF
:1000A000F3E000E00BBF02C007900D92AE30B10745
:1000B000D9F711E0AEE0B1E001C01D92A131B10766
:1000C000E1F70E94AD010C94D3010C940000CF9392
:1000D000DF9300D01F92CDB7DEB789837B836A831D
:1000E00089818A3031F48A819B81BC018DE00E9434
:1000F000670080EC90E0FC018081882F90E08072A6
:1001000099270097B1F386EC90E02981FC012083C8
:1001100080E090E00F900F900F90DF91CF910895C5
:10012000CF93DF93CDB7DEB780910F01909110018F
:100130008230910509F456C08330910530F4009760
:1001400089F081309105A9F0CCC08430910509F483
:10015000B0C08430910508F471C08530910509F470
:10016000B4C0BFC081E090E09093100180930F0174
:10017000BFC080E290E0FC01808188232CF580E202
:1001800090E0FC018081882F90E08470992700978F
:10019000D9F480E290E0FC018081882F90E08270A9
:1001A0009927009789F480E290E0FC018081882FF4
:1001B00090E081709927009739F485E090E0909362
:1001C000100180930F010DC080E290E0FC0180815E
:1001D000882339F082E090E09093100180930F0122
:1001E00087C086C080E290E0FC018081882F90E08B
:1001F000847099270097D9F080E290E0FC0180811B
:10020000882F90E082709927009789F480E290E02F
:10021000FC018081882F90E081709927009739F444
:1002200083E090E09093100180930F0161C081E022
:1002300090E09093100180930F015AC080910E01BD
:10024000843029F180E290E0FC018081882F90E0E9
:10025000827099270097D9F080E290E0FC018081BC
:10026000882F90E084709927009789F480E290E0CD
:10027000FC018081882F90E081709927009739F4E4
:1002800084E090E09093100180930F0111C0809161
:100290000E01843069F080E290E0FC0180818823C7
:1002A00039F081E090E09093100180930F0120C01D
:1002B0001FC080910E01823039F081E090E0909370
:1002C000100180930F0114C013C080910E0180387B
:1002D00039F081E090E09093100180930F0108C005
:1002E00007C081E090E09093100180930F0100001F
:1002F00080910F019091100182309105F1F08330CF
:10030000910530F40097D9F081309105D1F01CC0EF
:100310008430910539F084309105A8F0853091053D
:1003200039F012C085E290E021E0FC0120830CC08E
:1003300085E290E0FC01108207C0000005C00000CB
:1003400003C0000001C0000080E290E0FC01808159
:1003500080930E01DF91CF910895CF93DF93CDB7B6
:10036000DEB781E290E0FC01108282E290E02FEFA4
:10037000FC01208384E290E02FEFFC01208385E2E2
:1003800090E0FC01108287E290E02FEFFC012083D7
:1003900088E290E0FC0110821092100110920F018F
:0A03A0000E949000FDCFF894FFCFFB
:0E03AA000000000200000000670000000000DC
:00000001FF
