:100000000C9446000C9465000C9465000C946500FB
:100010000C9465000C9465000C9465000C946500CC
:100020000C9465000C9465000C9465000C946500BC
:100030000C9465000C9465000C9465000C946500AC
:100040000C9465000C9465000C9465000C9465009C
:100050000C9465000C9465000C9465000C9465008C
:100060000C9465000C9465000C9465000C9465007C
:100070000C9465000C9465000C9465000C9465006C
:100080000C9465000C9465000C94650011241FBE4F
:10009000CFEFD0E4DEBFCDBF11E0A0E0B1E0E6E3FA
:1000A000F3E000E00BBF02C007900D92AE30B10745
:1000B000D9F711E0AEE0B1E001C01D92A131B10766
:1000C000E1F70E947C010C9499010C940000CF93FD
:1000D000DF9300D01F92CDB7DEB789837B836A831D
:1000E00089818A3031F48A819B81BC018DE00E9434
:1000F000670080EC90E0FC018081882F90E08072A6
:1001000099270097B1F386EC90E02981FC012083C8
:1001100080E090E00F900F900F90DF91CF910895C5
:10012000CF93DF93CDB7DEB780910F01909110018F
:100130008230910521F18330910530F4009789F0E8
:1001400081309105A9F07DC08430910509F46BC020
:100150008430910508F460C08530910509F46AC0C7
:1001600070C081E090E09093100180930F0170C007
:1001700082E090E09093100180930F0169C080E2CB
:1001800090E0FC018081882F90E081709927009792
:1001900089F080E290E0FC018081882F90E08270FD
:1001A0009927009739F085E090E0909310018093B3
:1001B0000F0131C080E290E0FC018081882F90E047
:1001C00081709927009759F080910E01813039F0A4
:1001D00083E090E09093100180930F011CC080E2B7
:1001E00090E0FC018081882F90E082709927009731
:1001F00059F080910E01823039F084E090E09093C4
:10020000100180930F0107C082E090E090931001ED
:1002100080930F011DC01CC082E090E090931001FC
:1002200080930F0115C082E090E0909310018093BD
:100230000F010EC082E090E09093100180930F01B7
:1002400007C082E090E09093100180930F010000BE
:1002500080910F01909110018230910509F440C006
:100260008330910530F40097E9F18130910559F020
:100270003AC084309105F1F08430910550F085301A
:10028000910549F130C088E290E027E0FC0120832D
:100290002AC086E290E0FC018081893050F488E237
:1002A00090E028E230E0F90120812F5FFC012083FB
:1002B0001AC019C086E290E0FC018081882351F0C9
:1002C00088E290E028E230E0F90120812150FC0131
:1002D000208309C008C088E290E0FC01108203C0BE
:1002E000000001C0000080E290E0FC01808180936A
:1002F0000E01DF91CF910895CF93DF93CDB7DEB795
:1003000081E290E0FC01108282E290E02FEFFC019C
:10031000208387E290E02FEFFC01208388E290E0C9
:10032000FC0110821092100110920F010E949000A7
:06033000FDCFF894FFCFA1
:0E033600000000020000000067000000000050
:00000001FF
