:100000000C9456000C9475000C9475000C947500BB
:100010000C9475000C9475000C9475000C9475008C
:100020000C9475000C9475000C9475000C9475007C
:100030000C9475000C9475000C9475000C9475006C
:100040000C9475000C9475000C9475000C9475005C
:100050000C9475000C9475000C9475000C9475004C
:100060000C9475000C9475000C9475000C9475003C
:100070000C9475000C9475000C9475000C9475002C
:100080000C9475000C9475000C947500BA00C100B6
:10009000D900E000F800FF002A013E017C017C014C
:1000A00061017C0168017C016F01750111241FBE93
:1000B000CFEFD0E4DEBFCDBF11E0A0E0B1E0EEE6CF
:1000C000F3E000E00BBF02C007900D92AE30B10725
:1000D000D9F711E0AEE0B1E001C01D92A331B10744
:1000E000E1F70E9486010C94B5010C940000CF93B7
:1000F000DF9300D01F92CDB7DEB789837B836A83FD
:1001000089818A3031F48A819B81BC018DE00E9413
:10011000770080EC90E0FC018081882F90E0807275
:1001200099270097B1F386EC90E02981FC012083A8
:1001300080E090E00F900F900F90DF91CF910895A5
:10014000CF93DF93CDB7DEB780910F01909110016F
:10015000CC01A0E0B0E040E050E027E030E0841BBC
:10016000950B2817390708F490C08A5B9F4FFC0154
:100170000C94AC0181E090E09093100180930F010A
:100180008BC080E290E0FC018081882359F080914F
:100190000E01882339F482E090E09093100180935F
:1001A0000F017AC081E090E09093100180930F01DD
:1001B00073C083E090E09093100180930F016CC0B6
:1001C00080E290E0FC018081882359F080910E014B
:1001D000882339F484E090E09093100180930F011C
:1001E0005BC083E090E09093100180930F0154C0B6
:1001F00085E090E09093100180930F014DC08091B5
:1002000011018430F9F4809112018230D9F483E233
:1002100090E0FC018081882339F486E090E090939F
:10022000100180930F010DC083E290E0FC018081FA
:10023000813039F487E090E09093100180930F01B2
:1002400008C007C081E090E09093100180930F01F7
:1002500023C022C080E290E0FC01808188233CF42E
:1002600087E090E09093100180930F0115C086E025
:1002700090E09093100180930F010EC081E090E018
:100280009093100180930F0107C081E090E090935C
:10029000100180930F01000080910F0190911001D7
:1002A000CC01A0E0B0E040E050E027E030E0841B6B
:1002B000950B28173907F0F0825B9F4FFC010C94D7
:1002C000AC0180E290E0FC0180818093110115C0B7
:1002D00080E290E0FC018081809312010EC085E2F3
:1002E00090E021E0FC01208308C085E290E0FC0161
:1002F000108203C0000001C0000080E290E0FC0119
:10030000808180930E01DF91CF910895CF93DF9389
:10031000CDB7DEB781E290E0FC01108282E290E08E
:100320002FEFFC01208384E290E02FEFFC0120837B
:1003300085E290E0FC01108287E290E02FEFFC0163
:10034000208388E290E0FC0110821092100110924C
:100350000F010E94A000FDCFEE0FFF1F0024001C24
:0E0360000BBE0790F691E02D0994F894FFCFA4
:0E036E00000000020000000077000000000008
:00000001FF
