:100000000C9446000C9465000C9465000C946500FB
:100010000C9465000C9465000C9465000C946500CC
:100020000C9465000C9465000C9465000C946500BC
:100030000C9465000C9465000C9465000C946500AC
:100040000C9465000C9465000C9465000C9465009C
:100050000C9465000C9465000C9465000C9465008C
:100060000C9465000C9465000C9465000C9465007C
:100070000C9465000C9465000C9465000C9465006C
:100080000C9465000C9465000C94650011241FBE4F
:10009000CFEFD0E4DEBFCDBF11E0A0E0B1E0EEEDE8
:1000A000F2E000E00BBF02C007900D92AE30B10746
:1000B000D9F711E0AEE0B1E001C01D92A631B10761
:1000C000E1F70E9447010C946D010C940000CF935E
:1000D000DF9300D01F92CDB7DEB789837B836A831D
:1000E00089818A3031F48A819B81BC018DE00E9434
:1000F000670080EC90E0FC018081882F90E08072A6
:1001000099270097B1F386EC90E02981FC012083C8
:1001100080E090E00F900F900F90DF91CF910895C5
:10012000CF93DF93CDB7DEB780911001909111018D
:1001300082309105A1F18330910530F4009781F070
:1001400081309105A1F057C08430910509F445C074
:1001500084309105B0F18530910509F445C04BC05C
:1001600081E090E090931101809310014BC080E2F8
:1001700090E0FC018081882359F080910E01882352
:1001800039F482E090E090931101809310013AC01D
:1001900081E090E0909311018093100133C0809131
:1001A0000F01833038F083E090E090931101809349
:1001B000100128C081E090E090931101809310011C
:1001C00021C081E090E0909311018093100185E2BD
:1001D00090E02FEFFC01208315C081E090E0909328
:1001E0001101809310010EC081E090E09093110105
:1001F0008093100107C081E090E0909311018093FB
:100200001001000080911001909111018230910540
:1002100099F08330910530F4009769F181309105B0
:1002200061F12CC084309105D9F084309105A8F09B
:1002300085309105D9F022C080910F0191E0980F8F
:1002400090930F01882F90E020E230E0F9012081A7
:100250008E5E9E4FFC01208311C010920F010EC0D4
:1002600085E290E021E0FC01208308C085E290E077
:10027000FC01108203C0000001C0000080E290E099
:10028000FC01808180930E01DF91CF910895CF937F
:10029000DF93CDB7DEB781E290E0FC01108282E20D
:1002A00090E02FEFFC01208384E290E02FEFFC012F
:1002B000208385E290E0FC01108287E290E02FEF3E
:1002C000FC01208388E290E0FC0110821092110171
:0E02D000109210010E949000FDCFF894FFCF15
:0E02DE000000000200000000670000000000A9
:00000001FF
